:020000040800F2
:10000000E0060020290200088103000879030008A7
:100010007D030008E3020008A90A000800000000B0
:10002000000000000000000000000000810800083F
:10003000E702000800000000F5030008FD080008C2
:10004000430200084302000843020008430200087C
:10005000430200084302000843020008430200086C
:10006000430200084302000843020008430200085C
:10007000430200084302000843020008430200084C
:10008000430200084302000843020008430200083C
:10009000430200084302000843020008430200082C
:1000A000430200084302000843020008430200081C
:1000B00091090008430200084302000843020008B7
:1000C00043020008430200084302000843020008FC
:1000D00043020008430200084302000843020008EC
:1000E00043020008430200084302000843020008DC
:1000F00043020008430200084302000843020008CC
:1001000000000000000000000000000043020008A2
:1001100043020008430200084302000843020008AB
:10012000430200084302000843020008430200089B
:100130004302000843020008000000000000000025
:1001400043020008430200084302000800000000C8
:10015000000000000000000000000000000000009F
:1001600000000000000000004302000843020008F5
:100170004302000800000000000000000000000032
:10018000000000004302000800F002F800F03CF814
:100190000AA090E8000C82448344AAF10107DA45E2
:1001A00001D100F031F8AFF2090EBAE80F0013F0F8
:1001B000010F18BFFB1A43F001031847FC090000A8
:1001C0001C0A0000103A24BF78C878C1FAD8520738
:1001D00024BF30C830C144BF04680C6070470000C1
:1001E0000023002400250026103A28BF78C1FBD840
:1001F000520728BF30C148BF0B6070471FB500F0E1
:10020000D5FC1FBD10B510BD00F031F81146FFF749
:10021000F5FF00F04BFC00F04FF803B4FFF7F2FFDE
:1002200003BC00F057F80000094880470948004720
:10023000FEE7FEE7FEE7FEE7FEE7FEE7FEE7FEE796
:10024000FEE7FEE704480549054A064B70470000F3
:100250000D09000889010008E0000020E0060020E8
:10026000E0020020E00200207047704770477546AA
:1002700000F02CF8AE4605006946534620F0070012
:10028000854618B020B5FFF7DDFFBDE820404FF0F0
:1002900000064FF000074FF000084FF0000B21F070
:1002A0000701AC46ACE8C009ACE8C009ACE8C0093D
:1002B000ACE8C0098D46704710B50446AFF3008026
:1002C0002046BDE81040FFF7A8BF00000048704777
:1002D0008000002001491820ABBEFEE72600020086
:1002E000704700BFFEE77047F0B50A4600210023C3
:1002F000002400BF3DE0012505FA01F3156805EA79
:1003000003049C4234D11579012D02D01579022DB8
:1003100016D185684F000326BE40B54385605579E8
:100320004E00B540866835438560868801258D403E
:10033000AE438680868895798D40ADB22E43868007
:1003400005684F000326BE40B543056015794E0091
:10035000B540066835430560C5684F000326BE40BA
:10036000B543C560D5794E00B540C6683543C56014
:10037000491C1029BFD3F0BD00BFFEE700BFFEE758
:100380007047000070B5002100230F22C47804B329
:10039000154C246804F4E064C4F5E064210AC1F15A
:1003A0000403CA40447804FA03F1847814402143DA
:1003B00009010E4C0678A155047804F01F050124AC
:1003C000AC4005786D11AD0005F1E025C5F80041A0
:1003D00009E0047804F01F050124AC40044D0678C0
:1003E000761145F8264070BD0CED00E000E400E019
:1003F00080E100E07047000029B1064A52690243DB
:10040000044B5A6104E0034A52698243014B5A612A
:10041000704700000010024029B1064AD269024329
:10042000044BDA6104E0034AD2698243014BDA618A
:1004300070470000001002402DE9F0410021002427
:1004400000278C460023002200250026DFF81C84AC
:10045000D8F8048008F00C0121B1042907D008293C
:1004600030D109E0DFF80884C0F800802FE0DFF821
:100470000084C0F800802AE0DFF8F083D8F8048018
:1004800008F47014DFF8E483D8F8048008F48037A7
:100490004FF0020808EB944427B9DFF8D88304FB37
:1004A00008F20DE0DFF8C483D8F82C8008F00F08BC
:1004B00008F1010CDFF8B883B8FBFCF808FB04F284
:1004C000026004E0DFF8A883C0F8008000BF00BF2E
:1004D000DFF89883D8F8048008F0F0010909DFF804
:1004E000988318F80160D0F8008028FA06F8C0F860
:1004F0000480DFF87883D8F8048008F4E061090A02
:10050000DFF8748318F80130D0F8048028FA03F873
:10051000C0F80880DFF85483D8F8048008F46051EC
:10052000C90ADFF8548318F80150D0F8048028FA7B
:1005300005F8C0F80C80DFF83483D8F82C8008F474
:10054000F8710909DFF8348338F8113003F0100826
:10055000B8F1000F04D0B2FBF3F8C0F8108003E04C
:10056000D0F80080C0F81080DFF80083D8F82C8025
:1005700008F47851490ADFF8048338F8113003F0A1
:100580001008B8F1000F04D0B2FBF3F8C0F81480E3
:1005900003E0D0F80080C0F81480DFF8D082D8F8EB
:1005A000308008F01008B8F1100F04D0DFF8C082D6
:1005B000C0F8188003E0D0F80080C0F81880DFF899
:1005C000AC82D8F8308008F02008B8F1200F04D0B1
:1005D000DFF89C82C0F81C8003E0D0F80080C0F8EF
:1005E0001C80DFF88882D8F8308008F48078B8F56D
:1005F000807F0AD1D0F80080904506D1B54204D161
:100600004FEA4208C0F8208003E0D0F80C80C0F820
:100610002080DFF85882D8F8308008F40078B8F5E8
:10062000007F0AD1D0F80080904506D1B54204D1B0
:100630004FEA4208C0F8248003E0D0F80C80C0F8EC
:100640002480DFF82882D8F8308008F00308B8F159
:10065000000F04D1D0F80C80C0F8288028E0DFF823
:100660000C82D8F8308008F00308B8F1010F04D1EB
:10067000D0F80080C0F828801AE0DFF8F081D8F8C0
:10068000308008F00308B8F1020F04D14FF400489D
:10069000C0F828800CE0DFF8D481D8F8308008F06A
:1006A0000308B8F1030F03D1DFF8C481C0F8288034
:1006B000DFF8B881D8F8308008F44038B8F1000F7E
:1006C00004D1D0F80880C0F82C8028E0DFF89C81A5
:1006D000D8F8308008F44038B8F5803F04D1D0F81D
:1006E0000080C0F82C801AE0DFF88081D8F83080D4
:1006F00008F44038B8F5003F04D14FF40048C0F882
:100700002C800CE0DFF86481D8F8308008F44038A1
:10071000B8F5403F03D1DFF85881C0F82C80DFF8EE
:100720004C81D8F8308008F44028B8F1000F04D18B
:10073000D0F80880C0F8308028E0DFF83081D8F8A1
:10074000308008F44028B8F5802F04D1D0F800801C
:10075000C0F830801AE0DFF81481D8F8308008F44F
:100760004028B8F5002F04D14FF40048C0F830807D
:100770000CE0DFF8F880D8F8308008F44028B8F5AD
:10078000402F03D1DFF8E880C0F83080DFF8DC804C
:10079000D8F8308008F44018B8F1000F04D1D0F830
:1007A0000880C0F8348028E0DFF8C080D8F83080B6
:1007B00008F44018B8F5801F04D1D0F80080C0F8C4
:1007C00034801AE0DFF8A480D8F8308008F44018AC
:1007D000B8F5001F04D14FF40048C0F834800CE095
:1007E000DFF88880D8F8308008F44018B8F5401F4A
:1007F00003D1DFF87C80C0F83480DFF87080D8F84F
:10080000308008F44008B8F1000F04D1D0F8088017
:10081000C0F8388028E0DFF85480D8F8308008F439
:100820004008B8F5800F04D1D0F80080C0F83880B7
:100830001AE0DFF83880D8F8308008F44008B8F5BE
:10084000000F04D14FF40048C0F838800CE0DFF806
:100850001C80D8F8308008F44008B8F5400F03D168
:10086000DFF80C80C0F83880BDE8F081001002404D
:1008700000127A0000093D00000000201000002056
:100880007047000002201B4908601B4840681A4955
:1008900048600846406848600846406840F4806008
:1008A00048600846406820F47C104860084640686C
:1008B00040F4601048600846006840F080700860AE
:1008C00000BF0D48006800F000700028F9D00A4809
:1008D000406820F00300084948600846406840F03E
:1008E0000200486000BF0448406800F00C0008287F
:1008F000F9D1704700200240001002400248006811
:10090000401E0149086070472C00002010B51B48AC
:10091000006840F47000194908601948006840F008
:100920000100174908600846406816490840144904
:1009300048600846006814490840114908600846A4
:10094000006820F4802008600846406820F4FE001B
:1009500048600846C06A20F00F00C8620846006B75
:100960000A4908400649086300208860FFF78AFFAB
:100970004FF0006001498039086010BD88ED00E04B
:10098000001002400CC07FF8FFFFF6FECCFC00FF19
:1009900010B50121880700F01EF858B10121880721
:1009A00000F009F84FF09040808A80F020004FF06E
:1009B0009041888210BDCA4392B20261704721B152
:1009C000028842F00102028004E002884FF6FE73C2
:1009D0001A400280704730B50246002000230024F0
:1009E000156905EA0103D56805EA010413B10CB1E4
:1009F000012000E0002030BD10B51AB1C3680B43E0
:100A0000C36004E0C368CC43A4B22340C36010BDFC
:100A1000002202881B4B98420BD01B4B984208D0F7
:100A2000B0F1804F05D0194B984202D0184B984234
:100A300004D14FF68F731A404B881A43154B9842D6
:100A400007D0154B984204D04FF6FF431A400B894C
:100A50001A4302804B68C3620B880385094B984296
:100A60000BD0094B984208D00C4B984205D00C4B48
:100A7000984202D00B4B984201D18B7A0386012316
:100A800043617047002C01400034014000040040E5
:100A900000080040001000400014004000400140E9
:100AA000004401400048014000BFFEE786B001213C
:100AB0004804FFF7A1FC0121C804FFF79DFC0121B8
:100AC0000846FFF7A9FC3448FFF7B6FC01208DF873
:100AD000140000208DF816008DF8170003208DF803
:100AE00015002020049004A94FF09040FFF7FCFB74
:100AF0001C208DF8000000208DF801008DF8020008
:100B000001208DF803006846FFF73CFC2348029063
:100B10000020ADF80400ADF80C00ADF8060001A906
:100B20004FF08040FFF774FF012211469007FFF756
:100B300063FF01218807FFF742FF194800684FF45F
:100B40007A72B0FBF2F1B1F1807F01D301201DE098
:100B500021F07F40401E4FF0E022506150170F22DD
:100B6000002807DA13071D0E0E4B00F00F04241F98
:100B70001D5503E013071C0E0B4B1C5400BF002037
:100B80004FF0E022906107201061002008B100BF03
:100B9000FEE700BFFEE70000440000200048E80137
:100BA0003000002018ED00E000E400E04FF040705D
:100BB000E1EE100A70470000D80B0008000000208A
:100BC00044000000C40100081C0C00084400002080
:100BD0009C060000E0010008000000000102030480
:100BE00001020304060708090000010002000400D6
:100BF000060008000A000C001000200040008000E1
:100C0000000100000000000000A24A0400000000F3
:0C0C1000000000000102030406070809B0
:040000050800018965
:00000001FF
